{
  "abi": [
    {
      "inputs": [
        {
          "internalType": "address",
          "name": "_dappTokenAddress",
          "type": "address"
        }
      ],
      "stateMutability": "nonpayable",
      "type": "constructor"
    },
    {
      "anonymous": false,
      "inputs": [
        {
          "indexed": true,
          "internalType": "address",
          "name": "previousOwner",
          "type": "address"
        },
        {
          "indexed": true,
          "internalType": "address",
          "name": "newOwner",
          "type": "address"
        }
      ],
      "name": "OwnershipTransferred",
      "type": "event"
    },
    {
      "inputs": [
        {
          "internalType": "address",
          "name": "_token",
          "type": "address"
        }
      ],
      "name": "addAllowedTokens",
      "outputs": [],
      "stateMutability": "nonpayable",
      "type": "function"
    },
    {
      "inputs": [
        {
          "internalType": "uint256",
          "name": "",
          "type": "uint256"
        }
      ],
      "name": "allowedTokens",
      "outputs": [
        {
          "internalType": "address",
          "name": "",
          "type": "address"
        }
      ],
      "stateMutability": "view",
      "type": "function"
    },
    {
      "inputs": [],
      "name": "dappToken",
      "outputs": [
        {
          "internalType": "contract IERC20",
          "name": "",
          "type": "address"
        }
      ],
      "stateMutability": "view",
      "type": "function"
    },
    {
      "inputs": [
        {
          "internalType": "address",
          "name": "_token",
          "type": "address"
        }
      ],
      "name": "getTokenValue",
      "outputs": [
        {
          "internalType": "uint256",
          "name": "",
          "type": "uint256"
        },
        {
          "internalType": "uint256",
          "name": "",
          "type": "uint256"
        }
      ],
      "stateMutability": "view",
      "type": "function"
    },
    {
      "inputs": [
        {
          "internalType": "address",
          "name": "_user",
          "type": "address"
        },
        {
          "internalType": "address",
          "name": "_token",
          "type": "address"
        }
      ],
      "name": "getUserSingleTokenValue",
      "outputs": [
        {
          "internalType": "uint256",
          "name": "",
          "type": "uint256"
        }
      ],
      "stateMutability": "view",
      "type": "function"
    },
    {
      "inputs": [
        {
          "internalType": "address",
          "name": "_user",
          "type": "address"
        }
      ],
      "name": "getUserTotalValue",
      "outputs": [
        {
          "internalType": "uint256",
          "name": "",
          "type": "uint256"
        }
      ],
      "stateMutability": "view",
      "type": "function"
    },
    {
      "inputs": [],
      "name": "issueTokens",
      "outputs": [],
      "stateMutability": "nonpayable",
      "type": "function"
    },
    {
      "inputs": [],
      "name": "owner",
      "outputs": [
        {
          "internalType": "address",
          "name": "",
          "type": "address"
        }
      ],
      "stateMutability": "view",
      "type": "function"
    },
    {
      "inputs": [],
      "name": "renounceOwnership",
      "outputs": [],
      "stateMutability": "nonpayable",
      "type": "function"
    },
    {
      "inputs": [
        {
          "internalType": "address",
          "name": "_token",
          "type": "address"
        },
        {
          "internalType": "address",
          "name": "_priceFeed",
          "type": "address"
        }
      ],
      "name": "setPriceFeedAddress",
      "outputs": [],
      "stateMutability": "nonpayable",
      "type": "function"
    },
    {
      "inputs": [
        {
          "internalType": "uint256",
          "name": "_amount",
          "type": "uint256"
        },
        {
          "internalType": "address",
          "name": "_token",
          "type": "address"
        }
      ],
      "name": "stakeToken",
      "outputs": [],
      "stateMutability": "nonpayable",
      "type": "function"
    },
    {
      "inputs": [
        {
          "internalType": "uint256",
          "name": "",
          "type": "uint256"
        }
      ],
      "name": "stakers",
      "outputs": [
        {
          "internalType": "address",
          "name": "",
          "type": "address"
        }
      ],
      "stateMutability": "view",
      "type": "function"
    },
    {
      "inputs": [
        {
          "internalType": "address",
          "name": "_token",
          "type": "address"
        }
      ],
      "name": "tokenIsAllowed",
      "outputs": [
        {
          "internalType": "bool",
          "name": "",
          "type": "bool"
        }
      ],
      "stateMutability": "view",
      "type": "function"
    },
    {
      "inputs": [
        {
          "internalType": "address",
          "name": "",
          "type": "address"
        }
      ],
      "name": "tokenPriceFeedMap",
      "outputs": [
        {
          "internalType": "address",
          "name": "",
          "type": "address"
        }
      ],
      "stateMutability": "view",
      "type": "function"
    },
    {
      "inputs": [
        {
          "internalType": "address",
          "name": "",
          "type": "address"
        },
        {
          "internalType": "address",
          "name": "",
          "type": "address"
        }
      ],
      "name": "tokenStakerBalance",
      "outputs": [
        {
          "internalType": "uint256",
          "name": "",
          "type": "uint256"
        }
      ],
      "stateMutability": "view",
      "type": "function"
    },
    {
      "inputs": [
        {
          "internalType": "address",
          "name": "newOwner",
          "type": "address"
        }
      ],
      "name": "transferOwnership",
      "outputs": [],
      "stateMutability": "nonpayable",
      "type": "function"
    },
    {
      "inputs": [
        {
          "internalType": "address",
          "name": "_token",
          "type": "address"
        }
      ],
      "name": "unStakeTokens",
      "outputs": [],
      "stateMutability": "nonpayable",
      "type": "function"
    },
    {
      "inputs": [
        {
          "internalType": "address",
          "name": "",
          "type": "address"
        }
      ],
      "name": "uniqueTokensStaked",
      "outputs": [
        {
          "internalType": "uint256",
          "name": "",
          "type": "uint256"
        }
      ],
      "stateMutability": "view",
      "type": "function"
    }
  ],
  "bytecode": "608060405234801561001057600080fd5b5060405161110538038061110583398101604081905261002f916100ad565b6100383361005d565b600580546001600160a01b0319166001600160a01b03929092169190911790556100dd565b600080546001600160a01b038381166001600160a01b0319831681178455604051919092169283917f8be0079c531659141344cd1fd0a4f28419497f9722a3daafe3b4186f6b6457e09190a35050565b6000602082840312156100bf57600080fd5b81516001600160a01b03811681146100d657600080fd5b9392505050565b611019806100ec6000396000f3fe608060405234801561001057600080fd5b50600436106101165760003560e01c8063a1fdc0fd116100a2578063dd5b846711610071578063dd5b84671461024c578063f1c5d6c21461026f578063f2fde38b14610297578063f851418d146102aa578063fd5e6dd1146102d357600080fd5b8063a1fdc0fd146101f3578063af3f5e2214610206578063b83e023414610219578063c54212301461023957600080fd5b80635eb186f8116100e95780635eb186f8146101ac57806360ab5852146101bf578063715018a6146101c75780638da5cb5b146101cf5780639ee30600146101e057600080fd5b806301f9adc21461011b578063171e44ea14610159578063276b11da1461016e5780635e5f2e2614610181575b600080fd5b610146610129366004610cc9565b600260209081526000928352604080842090915290825290205481565b6040519081526020015b60405180910390f35b61016c610167366004610cfc565b6102e6565b005b61014661017c366004610cc9565b61036a565b61019461018f366004610d1e565b6103f0565b6040516001600160a01b039091168152602001610150565b600554610194906001600160a01b031681565b61016c61041a565b61016c610517565b6000546001600160a01b0316610194565b61016c6101ee366004610d37565b61054d565b61016c610201366004610cc9565b610733565b610146610214366004610cfc565b61078b565b610146610227366004610cfc565b60046020526000908152604090205481565b61016c610247366004610cfc565b61084e565b61025f61025a366004610cfc565b6109e0565b6040519015158152602001610150565b61028261027d366004610cfc565b610a49565b60408051928352602083019190915201610150565b61016c6102a5366004610cfc565b610b46565b6101946102b8366004610cfc565b6006602052600090815260409020546001600160a01b031681565b6101946102e1366004610d1e565b610bde565b6000546001600160a01b031633146103195760405162461bcd60e51b815260040161031090610d5a565b60405180910390fd5b6001805480820182556000919091527fb10e2d527612073b26eecdfd717e6a320cf44b4afac2b0732d9fcbe2b7fa0cf60180546001600160a01b0319166001600160a01b0392909216919091179055565b6001600160a01b03821660009081526004602052604081205461038f575060006103ea565b60008061039b84610a49565b6001600160a01b038087166000908152600260209081526040808320938b168352929052205491935091506103d182600a610e89565b6103db9084610e95565b6103e59190610eb7565b925050505b92915050565b6001818154811061040057600080fd5b6000918252602090912001546001600160a01b0316905081565b6000546001600160a01b031633146104445760405162461bcd60e51b815260040161031090610d5a565b60005b6003548110156105145760006003828154811061046657610466610ed6565b60009182526020822001546001600160a01b031691506104858261078b565b60055460405163a9059cbb60e01b81526001600160a01b0385811660048301526024820184905292935091169063a9059cbb906044016020604051808303816000875af11580156104da573d6000803e3d6000fd5b505050506040513d601f19601f820116820180604052508101906104fe9190610eec565b505050808061050c90610f0e565b915050610447565b50565b6000546001600160a01b031633146105415760405162461bcd60e51b815260040161031090610d5a565b61054b6000610bee565b565b600082116105b25760405162461bcd60e51b815260206004820152602c60248201527f4e756d626572206f6620746f6b656e7320746f207374616b652073686f756c6460448201526b20626520706f73697469766560a01b6064820152608401610310565b6105bb816109e0565b6106075760405162461bcd60e51b815260206004820152601d60248201527f546f6b656e206973206e6f7420616c6c6f77656420746f207374616b650000006044820152606401610310565b6106113382610c3e565b6040516323b872dd60e01b8152336004820152306024820152604481018390526001600160a01b038216906323b872dd906064016020604051808303816000875af1158015610664573d6000803e3d6000fd5b505050506040513d601f19601f820116820180604052508101906106889190610eec565b506001600160a01b03811660009081526002602090815260408083203384529091529020546106b8908390610f27565b6001600160a01b038216600090815260026020908152604080832033845282528083209390935560049052205460010361072f57600380546001810182556000919091527fc2575a0e9e593c00f959f8c92f12db2869c3395a3b0502d05e2516446f71f85b0180546001600160a01b031916331790555b5050565b6000546001600160a01b0316331461075d5760405162461bcd60e51b815260040161031090610d5a565b6001600160a01b03918216600090815260066020526040902080546001600160a01b03191691909216179055565b6001600160a01b0381166000908152600460205260408120546107e35760405162461bcd60e51b815260206004820152601060248201526f139bc81d1bdad95b9cc81cdd185ad95960821b6044820152606401610310565b6000805b6001548110156108475760006001828154811061080657610806610ed6565b6000918252602090912001546001600160a01b03169050610827858261036a565b6108319084610f27565b925050808061083f90610f0e565b9150506107e7565b5092915050565b6001600160a01b038116600090815260026020908152604080832033845290915290205461087b826109e0565b6108c75760405162461bcd60e51b815260206004820152601d60248201527f546f6b656e206973206e6f7420616c6c6f77656420746f207374616b650000006044820152606401610310565b600081116109175760405162461bcd60e51b815260206004820152601c60248201527f4e6f7420656e6f75676820746f6b656e7320746f20756e7374616b65000000006044820152606401610310565b6001600160a01b03821660009081526002602090815260408083203384528252808320839055600490915290205461095190600190610f3f565b3360008181526004602081905260409182902093909355516323b872dd60e01b815291820152306024820152604481018290526001600160a01b038316906323b872dd906064016020604051808303816000875af11580156109b7573d6000803e3d6000fd5b505050506040513d601f19601f820116820180604052508101906109db9190610eec565b505050565b6000805b600154811015610a4057826001600160a01b031660018281548110610a0b57610a0b610ed6565b6000918252602090912001546001600160a01b031603610a2e5750600192915050565b80610a3881610f0e565b9150506109e4565b50600092915050565b6001600160a01b03808216600090815260066020526040808220548151633fabe5a360e21b81529151929384939116918391839163feaf968c9160048083019260a09291908290030181865afa158015610aa7573d6000803e3d6000fd5b505050506040513d601f19601f82011682018060405250810190610acb9190610f70565b5050509150506000826001600160a01b031663313ce5676040518163ffffffff1660e01b8152600401602060405180830381865afa158015610b11573d6000803e3d6000fd5b505050506040513d601f19601f82011682018060405250810190610b359190610fc0565b919660ff9092169550909350505050565b6000546001600160a01b03163314610b705760405162461bcd60e51b815260040161031090610d5a565b6001600160a01b038116610bd55760405162461bcd60e51b815260206004820152602660248201527f4f776e61626c653a206e6577206f776e657220697320746865207a65726f206160448201526564647265737360d01b6064820152608401610310565b61051481610bee565b6003818154811061040057600080fd5b600080546001600160a01b038381166001600160a01b0319831681178455604051919092169283917f8be0079c531659141344cd1fd0a4f28419497f9722a3daafe3b4186f6b6457e09190a35050565b6001600160a01b038082166000908152600260209081526040808320938616835292905290812054900361072f576001600160a01b038216600090815260046020526040902054610c90906001610f27565b6001600160a01b0383166000908152600460205260409020555050565b80356001600160a01b0381168114610cc457600080fd5b919050565b60008060408385031215610cdc57600080fd5b610ce583610cad565b9150610cf360208401610cad565b90509250929050565b600060208284031215610d0e57600080fd5b610d1782610cad565b9392505050565b600060208284031215610d3057600080fd5b5035919050565b60008060408385031215610d4a57600080fd5b82359150610cf360208401610cad565b6020808252818101527f4f776e61626c653a2063616c6c6572206973206e6f7420746865206f776e6572604082015260600190565b634e487b7160e01b600052601160045260246000fd5b600181815b80851115610de0578160001904821115610dc657610dc6610d8f565b80851615610dd357918102915b93841c9390800290610daa565b509250929050565b600082610df7575060016103ea565b81610e04575060006103ea565b8160018114610e1a5760028114610e2457610e40565b60019150506103ea565b60ff841115610e3557610e35610d8f565b50506001821b6103ea565b5060208310610133831016604e8410600b8410161715610e63575081810a6103ea565b610e6d8383610da5565b8060001904821115610e8157610e81610d8f565b029392505050565b6000610d178383610de8565b600082610eb257634e487b7160e01b600052601260045260246000fd5b500490565b6000816000190483118215151615610ed157610ed1610d8f565b500290565b634e487b7160e01b600052603260045260246000fd5b600060208284031215610efe57600080fd5b81518015158114610d1757600080fd5b600060018201610f2057610f20610d8f565b5060010190565b60008219821115610f3a57610f3a610d8f565b500190565b600082821015610f5157610f51610d8f565b500390565b805169ffffffffffffffffffff81168114610cc457600080fd5b600080600080600060a08688031215610f8857600080fd5b610f9186610f56565b9450602086015193506040860151925060608601519150610fb460808701610f56565b90509295509295909350565b600060208284031215610fd257600080fd5b815160ff81168114610d1757600080fdfea2646970667358221220fae6a43a2563e53d667a4e23c07626fa75ceeaf4d1b959cfa7e7fe36be8a436064736f6c634300080d0033",
  "bytecodeSha1": "c3e4b0086b0b7dd6aa4f3b6b551d57dad0dc9f21",
  "compiler": {
    "evm_version": "istanbul",
    "optimizer": {
      "enabled": true,
      "runs": 200
    },
    "version": "0.8.13+commit.abaa5c0e"
  },
  "contractName": "TokenFarm",
  "language": "Solidity",
  "natspec": {
    "kind": "dev",
    "methods": {
      "owner()": {
        "details": "Returns the address of the current owner."
      },
      "renounceOwnership()": {
        "details": "Leaves the contract without owner. It will not be possible to call `onlyOwner` functions anymore. Can only be called by the current owner. NOTE: Renouncing ownership will leave the contract without an owner, thereby removing any functionality that is only available to the owner."
      },
      "transferOwnership(address)": {
        "details": "Transfers ownership of the contract to a new account (`newOwner`). Can only be called by the current owner."
      }
    },
    "version": 1
  },
  "opcodes": "PUSH1 0x80 PUSH1 0x40 MSTORE CALLVALUE DUP1 ISZERO PUSH2 0x10 JUMPI PUSH1 0x0 DUP1 REVERT JUMPDEST POP PUSH1 0x4 CALLDATASIZE LT PUSH2 0x116 JUMPI PUSH1 0x0 CALLDATALOAD PUSH1 0xE0 SHR DUP1 PUSH4 0xA1FDC0FD GT PUSH2 0xA2 JUMPI DUP1 PUSH4 0xDD5B8467 GT PUSH2 0x71 JUMPI DUP1 PUSH4 0xDD5B8467 EQ PUSH2 0x24C JUMPI DUP1 PUSH4 0xF1C5D6C2 EQ PUSH2 0x26F JUMPI DUP1 PUSH4 0xF2FDE38B EQ PUSH2 0x297 JUMPI DUP1 PUSH4 0xF851418D EQ PUSH2 0x2AA JUMPI DUP1 PUSH4 0xFD5E6DD1 EQ PUSH2 0x2D3 JUMPI PUSH1 0x0 DUP1 REVERT JUMPDEST DUP1 PUSH4 0xA1FDC0FD EQ PUSH2 0x1F3 JUMPI DUP1 PUSH4 0xAF3F5E22 EQ PUSH2 0x206 JUMPI DUP1 PUSH4 0xB83E0234 EQ PUSH2 0x219 JUMPI DUP1 PUSH4 0xC5421230 EQ PUSH2 0x239 JUMPI PUSH1 0x0 DUP1 REVERT JUMPDEST DUP1 PUSH4 0x5EB186F8 GT PUSH2 0xE9 JUMPI DUP1 PUSH4 0x5EB186F8 EQ PUSH2 0x1AC JUMPI DUP1 PUSH4 0x60AB5852 EQ PUSH2 0x1BF JUMPI DUP1 PUSH4 0x715018A6 EQ PUSH2 0x1C7 JUMPI DUP1 PUSH4 0x8DA5CB5B EQ PUSH2 0x1CF JUMPI DUP1 PUSH4 0x9EE30600 EQ PUSH2 0x1E0 JUMPI PUSH1 0x0 DUP1 REVERT JUMPDEST DUP1 PUSH4 0x1F9ADC2 EQ PUSH2 0x11B JUMPI DUP1 PUSH4 0x171E44EA EQ PUSH2 0x159 JUMPI DUP1 PUSH4 0x276B11DA EQ PUSH2 0x16E JUMPI DUP1 PUSH4 0x5E5F2E26 EQ PUSH2 0x181 JUMPI JUMPDEST PUSH1 0x0 DUP1 REVERT JUMPDEST PUSH2 0x146 PUSH2 0x129 CALLDATASIZE PUSH1 0x4 PUSH2 0xCC9 JUMP JUMPDEST PUSH1 0x2 PUSH1 0x20 SWAP1 DUP2 MSTORE PUSH1 0x0 SWAP3 DUP4 MSTORE PUSH1 0x40 DUP1 DUP5 KECCAK256 SWAP1 SWAP2 MSTORE SWAP1 DUP3 MSTORE SWAP1 KECCAK256 SLOAD DUP2 JUMP JUMPDEST PUSH1 0x40 MLOAD SWAP1 DUP2 MSTORE PUSH1 0x20 ADD JUMPDEST PUSH1 0x40 MLOAD DUP1 SWAP2 SUB SWAP1 RETURN JUMPDEST PUSH2 0x16C PUSH2 0x167 CALLDATASIZE PUSH1 0x4 PUSH2 0xCFC JUMP JUMPDEST PUSH2 0x2E6 JUMP JUMPDEST STOP JUMPDEST PUSH2 0x146 PUSH2 0x17C CALLDATASIZE PUSH1 0x4 PUSH2 0xCC9 JUMP JUMPDEST PUSH2 0x36A JUMP JUMPDEST PUSH2 0x194 PUSH2 0x18F CALLDATASIZE PUSH1 0x4 PUSH2 0xD1E JUMP JUMPDEST PUSH2 0x3F0 JUMP JUMPDEST PUSH1 0x40 MLOAD PUSH1 0x1 PUSH1 0x1 PUSH1 0xA0 SHL SUB SWAP1 SWAP2 AND DUP2 MSTORE PUSH1 0x20 ADD PUSH2 0x150 JUMP JUMPDEST PUSH1 0x5 SLOAD PUSH2 0x194 SWAP1 PUSH1 0x1 PUSH1 0x1 PUSH1 0xA0 SHL SUB AND DUP2 JUMP JUMPDEST PUSH2 0x16C PUSH2 0x41A JUMP JUMPDEST PUSH2 0x16C PUSH2 0x517 JUMP JUMPDEST PUSH1 0x0 SLOAD PUSH1 0x1 PUSH1 0x1 PUSH1 0xA0 SHL SUB AND PUSH2 0x194 JUMP JUMPDEST PUSH2 0x16C PUSH2 0x1EE CALLDATASIZE PUSH1 0x4 PUSH2 0xD37 JUMP JUMPDEST PUSH2 0x54D JUMP JUMPDEST PUSH2 0x16C PUSH2 0x201 CALLDATASIZE PUSH1 0x4 PUSH2 0xCC9 JUMP JUMPDEST PUSH2 0x733 JUMP JUMPDEST PUSH2 0x146 PUSH2 0x214 CALLDATASIZE PUSH1 0x4 PUSH2 0xCFC JUMP JUMPDEST PUSH2 0x78B JUMP JUMPDEST PUSH2 0x146 PUSH2 0x227 CALLDATASIZE PUSH1 0x4 PUSH2 0xCFC JUMP JUMPDEST PUSH1 0x4 PUSH1 0x20 MSTORE PUSH1 0x0 SWAP1 DUP2 MSTORE PUSH1 0x40 SWAP1 KECCAK256 SLOAD DUP2 JUMP JUMPDEST PUSH2 0x16C PUSH2 0x247 CALLDATASIZE PUSH1 0x4 PUSH2 0xCFC JUMP JUMPDEST PUSH2 0x84E JUMP JUMPDEST PUSH2 0x25F PUSH2 0x25A CALLDATASIZE PUSH1 0x4 PUSH2 0xCFC JUMP JUMPDEST PUSH2 0x9E0 JUMP JUMPDEST PUSH1 0x40 MLOAD SWAP1 ISZERO ISZERO DUP2 MSTORE PUSH1 0x20 ADD PUSH2 0x150 JUMP JUMPDEST PUSH2 0x282 PUSH2 0x27D CALLDATASIZE PUSH1 0x4 PUSH2 0xCFC JUMP JUMPDEST PUSH2 0xA49 JUMP JUMPDEST PUSH1 0x40 DUP1 MLOAD SWAP3 DUP4 MSTORE PUSH1 0x20 DUP4 ADD SWAP2 SWAP1 SWAP2 MSTORE ADD PUSH2 0x150 JUMP JUMPDEST PUSH2 0x16C PUSH2 0x2A5 CALLDATASIZE PUSH1 0x4 PUSH2 0xCFC JUMP JUMPDEST PUSH2 0xB46 JUMP JUMPDEST PUSH2 0x194 PUSH2 0x2B8 CALLDATASIZE PUSH1 0x4 PUSH2 0xCFC JUMP JUMPDEST PUSH1 0x6 PUSH1 0x20 MSTORE PUSH1 0x0 SWAP1 DUP2 MSTORE PUSH1 0x40 SWAP1 KECCAK256 SLOAD PUSH1 0x1 PUSH1 0x1 PUSH1 0xA0 SHL SUB AND DUP2 JUMP JUMPDEST PUSH2 0x194 PUSH2 0x2E1 CALLDATASIZE PUSH1 0x4 PUSH2 0xD1E JUMP JUMPDEST PUSH2 0xBDE JUMP JUMPDEST PUSH1 0x0 SLOAD PUSH1 0x1 PUSH1 0x1 PUSH1 0xA0 SHL SUB AND CALLER EQ PUSH2 0x319 JUMPI PUSH1 0x40 MLOAD PUSH3 0x461BCD PUSH1 0xE5 SHL DUP2 MSTORE PUSH1 0x4 ADD PUSH2 0x310 SWAP1 PUSH2 0xD5A JUMP JUMPDEST PUSH1 0x40 MLOAD DUP1 SWAP2 SUB SWAP1 REVERT JUMPDEST PUSH1 0x1 DUP1 SLOAD DUP1 DUP3 ADD DUP3 SSTORE PUSH1 0x0 SWAP2 SWAP1 SWAP2 MSTORE PUSH32 0xB10E2D527612073B26EECDFD717E6A320CF44B4AFAC2B0732D9FCBE2B7FA0CF6 ADD DUP1 SLOAD PUSH1 0x1 PUSH1 0x1 PUSH1 0xA0 SHL SUB NOT AND PUSH1 0x1 PUSH1 0x1 PUSH1 0xA0 SHL SUB SWAP3 SWAP1 SWAP3 AND SWAP2 SWAP1 SWAP2 OR SWAP1 SSTORE JUMP JUMPDEST PUSH1 0x1 PUSH1 0x1 PUSH1 0xA0 SHL SUB DUP3 AND PUSH1 0x0 SWAP1 DUP2 MSTORE PUSH1 0x4 PUSH1 0x20 MSTORE PUSH1 0x40 DUP2 KECCAK256 SLOAD PUSH2 0x38F JUMPI POP PUSH1 0x0 PUSH2 0x3EA JUMP JUMPDEST PUSH1 0x0 DUP1 PUSH2 0x39B DUP5 PUSH2 0xA49 JUMP JUMPDEST PUSH1 0x1 PUSH1 0x1 PUSH1 0xA0 SHL SUB DUP1 DUP8 AND PUSH1 0x0 SWAP1 DUP2 MSTORE PUSH1 0x2 PUSH1 0x20 SWAP1 DUP2 MSTORE PUSH1 0x40 DUP1 DUP4 KECCAK256 SWAP4 DUP12 AND DUP4 MSTORE SWAP3 SWAP1 MSTORE KECCAK256 SLOAD SWAP2 SWAP4 POP SWAP2 POP PUSH2 0x3D1 DUP3 PUSH1 0xA PUSH2 0xE89 JUMP JUMPDEST PUSH2 0x3DB SWAP1 DUP5 PUSH2 0xE95 JUMP JUMPDEST PUSH2 0x3E5 SWAP2 SWAP1 PUSH2 0xEB7 JUMP JUMPDEST SWAP3 POP POP POP JUMPDEST SWAP3 SWAP2 POP POP JUMP JUMPDEST PUSH1 0x1 DUP2 DUP2 SLOAD DUP2 LT PUSH2 0x400 JUMPI PUSH1 0x0 DUP1 REVERT JUMPDEST PUSH1 0x0 SWAP2 DUP3 MSTORE PUSH1 0x20 SWAP1 SWAP2 KECCAK256 ADD SLOAD PUSH1 0x1 PUSH1 0x1 PUSH1 0xA0 SHL SUB AND SWAP1 POP DUP2 JUMP JUMPDEST PUSH1 0x0 SLOAD PUSH1 0x1 PUSH1 0x1 PUSH1 0xA0 SHL SUB AND CALLER EQ PUSH2 0x444 JUMPI PUSH1 0x40 MLOAD PUSH3 0x461BCD PUSH1 0xE5 SHL DUP2 MSTORE PUSH1 0x4 ADD PUSH2 0x310 SWAP1 PUSH2 0xD5A JUMP JUMPDEST PUSH1 0x0 JUMPDEST PUSH1 0x3 SLOAD DUP2 LT ISZERO PUSH2 0x514 JUMPI PUSH1 0x0 PUSH1 0x3 DUP3 DUP2 SLOAD DUP2 LT PUSH2 0x466 JUMPI PUSH2 0x466 PUSH2 0xED6 JUMP JUMPDEST PUSH1 0x0 SWAP2 DUP3 MSTORE PUSH1 0x20 DUP3 KECCAK256 ADD SLOAD PUSH1 0x1 PUSH1 0x1 PUSH1 0xA0 SHL SUB AND SWAP2 POP PUSH2 0x485 DUP3 PUSH2 0x78B JUMP JUMPDEST PUSH1 0x5 SLOAD PUSH1 0x40 MLOAD PUSH4 0xA9059CBB PUSH1 0xE0 SHL DUP2 MSTORE PUSH1 0x1 PUSH1 0x1 PUSH1 0xA0 SHL SUB DUP6 DUP2 AND PUSH1 0x4 DUP4 ADD MSTORE PUSH1 0x24 DUP3 ADD DUP5 SWAP1 MSTORE SWAP3 SWAP4 POP SWAP2 AND SWAP1 PUSH4 0xA9059CBB SWAP1 PUSH1 0x44 ADD PUSH1 0x20 PUSH1 0x40 MLOAD DUP1 DUP4 SUB DUP2 PUSH1 0x0 DUP8 GAS CALL ISZERO DUP1 ISZERO PUSH2 0x4DA JUMPI RETURNDATASIZE PUSH1 0x0 DUP1 RETURNDATACOPY RETURNDATASIZE PUSH1 0x0 REVERT JUMPDEST POP POP POP POP PUSH1 0x40 MLOAD RETURNDATASIZE PUSH1 0x1F NOT PUSH1 0x1F DUP3 ADD AND DUP3 ADD DUP1 PUSH1 0x40 MSTORE POP DUP2 ADD SWAP1 PUSH2 0x4FE SWAP2 SWAP1 PUSH2 0xEEC JUMP JUMPDEST POP POP POP DUP1 DUP1 PUSH2 0x50C SWAP1 PUSH2 0xF0E JUMP JUMPDEST SWAP2 POP POP PUSH2 0x447 JUMP JUMPDEST POP JUMP JUMPDEST PUSH1 0x0 SLOAD PUSH1 0x1 PUSH1 0x1 PUSH1 0xA0 SHL SUB AND CALLER EQ PUSH2 0x541 JUMPI PUSH1 0x40 MLOAD PUSH3 0x461BCD PUSH1 0xE5 SHL DUP2 MSTORE PUSH1 0x4 ADD PUSH2 0x310 SWAP1 PUSH2 0xD5A JUMP JUMPDEST PUSH2 0x54B PUSH1 0x0 PUSH2 0xBEE JUMP JUMPDEST JUMP JUMPDEST PUSH1 0x0 DUP3 GT PUSH2 0x5B2 JUMPI PUSH1 0x40 MLOAD PUSH3 0x461BCD PUSH1 0xE5 SHL DUP2 MSTORE PUSH1 0x20 PUSH1 0x4 DUP3 ADD MSTORE PUSH1 0x2C PUSH1 0x24 DUP3 ADD MSTORE PUSH32 0x4E756D626572206F6620746F6B656E7320746F207374616B652073686F756C64 PUSH1 0x44 DUP3 ADD MSTORE PUSH12 0x20626520706F736974697665 PUSH1 0xA0 SHL PUSH1 0x64 DUP3 ADD MSTORE PUSH1 0x84 ADD PUSH2 0x310 JUMP JUMPDEST PUSH2 0x5BB DUP2 PUSH2 0x9E0 JUMP JUMPDEST PUSH2 0x607 JUMPI PUSH1 0x40 MLOAD PUSH3 0x461BCD PUSH1 0xE5 SHL DUP2 MSTORE PUSH1 0x20 PUSH1 0x4 DUP3 ADD MSTORE PUSH1 0x1D PUSH1 0x24 DUP3 ADD MSTORE PUSH32 0x546F6B656E206973206E6F7420616C6C6F77656420746F207374616B65000000 PUSH1 0x44 DUP3 ADD MSTORE PUSH1 0x64 ADD PUSH2 0x310 JUMP JUMPDEST PUSH2 0x611 CALLER DUP3 PUSH2 0xC3E JUMP JUMPDEST PUSH1 0x40 MLOAD PUSH4 0x23B872DD PUSH1 0xE0 SHL DUP2 MSTORE CALLER PUSH1 0x4 DUP3 ADD MSTORE ADDRESS PUSH1 0x24 DUP3 ADD MSTORE PUSH1 0x44 DUP2 ADD DUP4 SWAP1 MSTORE PUSH1 0x1 PUSH1 0x1 PUSH1 0xA0 SHL SUB DUP3 AND SWAP1 PUSH4 0x23B872DD SWAP1 PUSH1 0x64 ADD PUSH1 0x20 PUSH1 0x40 MLOAD DUP1 DUP4 SUB DUP2 PUSH1 0x0 DUP8 GAS CALL ISZERO DUP1 ISZERO PUSH2 0x664 JUMPI RETURNDATASIZE PUSH1 0x0 DUP1 RETURNDATACOPY RETURNDATASIZE PUSH1 0x0 REVERT JUMPDEST POP POP POP POP PUSH1 0x40 MLOAD RETURNDATASIZE PUSH1 0x1F NOT PUSH1 0x1F DUP3 ADD AND DUP3 ADD DUP1 PUSH1 0x40 MSTORE POP DUP2 ADD SWAP1 PUSH2 0x688 SWAP2 SWAP1 PUSH2 0xEEC JUMP JUMPDEST POP PUSH1 0x1 PUSH1 0x1 PUSH1 0xA0 SHL SUB DUP2 AND PUSH1 0x0 SWAP1 DUP2 MSTORE PUSH1 0x2 PUSH1 0x20 SWAP1 DUP2 MSTORE PUSH1 0x40 DUP1 DUP4 KECCAK256 CALLER DUP5 MSTORE SWAP1 SWAP2 MSTORE SWAP1 KECCAK256 SLOAD PUSH2 0x6B8 SWAP1 DUP4 SWAP1 PUSH2 0xF27 JUMP JUMPDEST PUSH1 0x1 PUSH1 0x1 PUSH1 0xA0 SHL SUB DUP3 AND PUSH1 0x0 SWAP1 DUP2 MSTORE PUSH1 0x2 PUSH1 0x20 SWAP1 DUP2 MSTORE PUSH1 0x40 DUP1 DUP4 KECCAK256 CALLER DUP5 MSTORE DUP3 MSTORE DUP1 DUP4 KECCAK256 SWAP4 SWAP1 SWAP4 SSTORE PUSH1 0x4 SWAP1 MSTORE KECCAK256 SLOAD PUSH1 0x1 SUB PUSH2 0x72F JUMPI PUSH1 0x3 DUP1 SLOAD PUSH1 0x1 DUP2 ADD DUP3 SSTORE PUSH1 0x0 SWAP2 SWAP1 SWAP2 MSTORE PUSH32 0xC2575A0E9E593C00F959F8C92F12DB2869C3395A3B0502D05E2516446F71F85B ADD DUP1 SLOAD PUSH1 0x1 PUSH1 0x1 PUSH1 0xA0 SHL SUB NOT AND CALLER OR SWAP1 SSTORE JUMPDEST POP POP JUMP JUMPDEST PUSH1 0x0 SLOAD PUSH1 0x1 PUSH1 0x1 PUSH1 0xA0 SHL SUB AND CALLER EQ PUSH2 0x75D JUMPI PUSH1 0x40 MLOAD PUSH3 0x461BCD PUSH1 0xE5 SHL DUP2 MSTORE PUSH1 0x4 ADD PUSH2 0x310 SWAP1 PUSH2 0xD5A JUMP JUMPDEST PUSH1 0x1 PUSH1 0x1 PUSH1 0xA0 SHL SUB SWAP2 DUP3 AND PUSH1 0x0 SWAP1 DUP2 MSTORE PUSH1 0x6 PUSH1 0x20 MSTORE PUSH1 0x40 SWAP1 KECCAK256 DUP1 SLOAD PUSH1 0x1 PUSH1 0x1 PUSH1 0xA0 SHL SUB NOT AND SWAP2 SWAP1 SWAP3 AND OR SWAP1 SSTORE JUMP JUMPDEST PUSH1 0x1 PUSH1 0x1 PUSH1 0xA0 SHL SUB DUP2 AND PUSH1 0x0 SWAP1 DUP2 MSTORE PUSH1 0x4 PUSH1 0x20 MSTORE PUSH1 0x40 DUP2 KECCAK256 SLOAD PUSH2 0x7E3 JUMPI PUSH1 0x40 MLOAD PUSH3 0x461BCD PUSH1 0xE5 SHL DUP2 MSTORE PUSH1 0x20 PUSH1 0x4 DUP3 ADD MSTORE PUSH1 0x10 PUSH1 0x24 DUP3 ADD MSTORE PUSH16 0x139BC81D1BDAD95B9CC81CDD185AD959 PUSH1 0x82 SHL PUSH1 0x44 DUP3 ADD MSTORE PUSH1 0x64 ADD PUSH2 0x310 JUMP JUMPDEST PUSH1 0x0 DUP1 JUMPDEST PUSH1 0x1 SLOAD DUP2 LT ISZERO PUSH2 0x847 JUMPI PUSH1 0x0 PUSH1 0x1 DUP3 DUP2 SLOAD DUP2 LT PUSH2 0x806 JUMPI PUSH2 0x806 PUSH2 0xED6 JUMP JUMPDEST PUSH1 0x0 SWAP2 DUP3 MSTORE PUSH1 0x20 SWAP1 SWAP2 KECCAK256 ADD SLOAD PUSH1 0x1 PUSH1 0x1 PUSH1 0xA0 SHL SUB AND SWAP1 POP PUSH2 0x827 DUP6 DUP3 PUSH2 0x36A JUMP JUMPDEST PUSH2 0x831 SWAP1 DUP5 PUSH2 0xF27 JUMP JUMPDEST SWAP3 POP POP DUP1 DUP1 PUSH2 0x83F SWAP1 PUSH2 0xF0E JUMP JUMPDEST SWAP2 POP POP PUSH2 0x7E7 JUMP JUMPDEST POP SWAP3 SWAP2 POP POP JUMP JUMPDEST PUSH1 0x1 PUSH1 0x1 PUSH1 0xA0 SHL SUB DUP2 AND PUSH1 0x0 SWAP1 DUP2 MSTORE PUSH1 0x2 PUSH1 0x20 SWAP1 DUP2 MSTORE PUSH1 0x40 DUP1 DUP4 KECCAK256 CALLER DUP5 MSTORE SWAP1 SWAP2 MSTORE SWAP1 KECCAK256 SLOAD PUSH2 0x87B DUP3 PUSH2 0x9E0 JUMP JUMPDEST PUSH2 0x8C7 JUMPI PUSH1 0x40 MLOAD PUSH3 0x461BCD PUSH1 0xE5 SHL DUP2 MSTORE PUSH1 0x20 PUSH1 0x4 DUP3 ADD MSTORE PUSH1 0x1D PUSH1 0x24 DUP3 ADD MSTORE PUSH32 0x546F6B656E206973206E6F7420616C6C6F77656420746F207374616B65000000 PUSH1 0x44 DUP3 ADD MSTORE PUSH1 0x64 ADD PUSH2 0x310 JUMP JUMPDEST PUSH1 0x0 DUP2 GT PUSH2 0x917 JUMPI PUSH1 0x40 MLOAD PUSH3 0x461BCD PUSH1 0xE5 SHL DUP2 MSTORE PUSH1 0x20 PUSH1 0x4 DUP3 ADD MSTORE PUSH1 0x1C PUSH1 0x24 DUP3 ADD MSTORE PUSH32 0x4E6F7420656E6F75676820746F6B656E7320746F20756E7374616B6500000000 PUSH1 0x44 DUP3 ADD MSTORE PUSH1 0x64 ADD PUSH2 0x310 JUMP JUMPDEST PUSH1 0x1 PUSH1 0x1 PUSH1 0xA0 SHL SUB DUP3 AND PUSH1 0x0 SWAP1 DUP2 MSTORE PUSH1 0x2 PUSH1 0x20 SWAP1 DUP2 MSTORE PUSH1 0x40 DUP1 DUP4 KECCAK256 CALLER DUP5 MSTORE DUP3 MSTORE DUP1 DUP4 KECCAK256 DUP4 SWAP1 SSTORE PUSH1 0x4 SWAP1 SWAP2 MSTORE SWAP1 KECCAK256 SLOAD PUSH2 0x951 SWAP1 PUSH1 0x1 SWAP1 PUSH2 0xF3F JUMP JUMPDEST CALLER PUSH1 0x0 DUP2 DUP2 MSTORE PUSH1 0x4 PUSH1 0x20 DUP2 SWAP1 MSTORE PUSH1 0x40 SWAP2 DUP3 SWAP1 KECCAK256 SWAP4 SWAP1 SWAP4 SSTORE MLOAD PUSH4 0x23B872DD PUSH1 0xE0 SHL DUP2 MSTORE SWAP2 DUP3 ADD MSTORE ADDRESS PUSH1 0x24 DUP3 ADD MSTORE PUSH1 0x44 DUP2 ADD DUP3 SWAP1 MSTORE PUSH1 0x1 PUSH1 0x1 PUSH1 0xA0 SHL SUB DUP4 AND SWAP1 PUSH4 0x23B872DD SWAP1 PUSH1 0x64 ADD PUSH1 0x20 PUSH1 0x40 MLOAD DUP1 DUP4 SUB DUP2 PUSH1 0x0 DUP8 GAS CALL ISZERO DUP1 ISZERO PUSH2 0x9B7 JUMPI RETURNDATASIZE PUSH1 0x0 DUP1 RETURNDATACOPY RETURNDATASIZE PUSH1 0x0 REVERT JUMPDEST POP POP POP POP PUSH1 0x40 MLOAD RETURNDATASIZE PUSH1 0x1F NOT PUSH1 0x1F DUP3 ADD AND DUP3 ADD DUP1 PUSH1 0x40 MSTORE POP DUP2 ADD SWAP1 PUSH2 0x9DB SWAP2 SWAP1 PUSH2 0xEEC JUMP JUMPDEST POP POP POP JUMP JUMPDEST PUSH1 0x0 DUP1 JUMPDEST PUSH1 0x1 SLOAD DUP2 LT ISZERO PUSH2 0xA40 JUMPI DUP3 PUSH1 0x1 PUSH1 0x1 PUSH1 0xA0 SHL SUB AND PUSH1 0x1 DUP3 DUP2 SLOAD DUP2 LT PUSH2 0xA0B JUMPI PUSH2 0xA0B PUSH2 0xED6 JUMP JUMPDEST PUSH1 0x0 SWAP2 DUP3 MSTORE PUSH1 0x20 SWAP1 SWAP2 KECCAK256 ADD SLOAD PUSH1 0x1 PUSH1 0x1 PUSH1 0xA0 SHL SUB AND SUB PUSH2 0xA2E JUMPI POP PUSH1 0x1 SWAP3 SWAP2 POP POP JUMP JUMPDEST DUP1 PUSH2 0xA38 DUP2 PUSH2 0xF0E JUMP JUMPDEST SWAP2 POP POP PUSH2 0x9E4 JUMP JUMPDEST POP PUSH1 0x0 SWAP3 SWAP2 POP POP JUMP JUMPDEST PUSH1 0x1 PUSH1 0x1 PUSH1 0xA0 SHL SUB DUP1 DUP3 AND PUSH1 0x0 SWAP1 DUP2 MSTORE PUSH1 0x6 PUSH1 0x20 MSTORE PUSH1 0x40 DUP1 DUP3 KECCAK256 SLOAD DUP2 MLOAD PUSH4 0x3FABE5A3 PUSH1 0xE2 SHL DUP2 MSTORE SWAP2 MLOAD SWAP3 SWAP4 DUP5 SWAP4 SWAP2 AND SWAP2 DUP4 SWAP2 DUP4 SWAP2 PUSH4 0xFEAF968C SWAP2 PUSH1 0x4 DUP1 DUP4 ADD SWAP3 PUSH1 0xA0 SWAP3 SWAP2 SWAP1 DUP3 SWAP1 SUB ADD DUP2 DUP7 GAS STATICCALL ISZERO DUP1 ISZERO PUSH2 0xAA7 JUMPI RETURNDATASIZE PUSH1 0x0 DUP1 RETURNDATACOPY RETURNDATASIZE PUSH1 0x0 REVERT JUMPDEST POP POP POP POP PUSH1 0x40 MLOAD RETURNDATASIZE PUSH1 0x1F NOT PUSH1 0x1F DUP3 ADD AND DUP3 ADD DUP1 PUSH1 0x40 MSTORE POP DUP2 ADD SWAP1 PUSH2 0xACB SWAP2 SWAP1 PUSH2 0xF70 JUMP JUMPDEST POP POP POP SWAP2 POP POP PUSH1 0x0 DUP3 PUSH1 0x1 PUSH1 0x1 PUSH1 0xA0 SHL SUB AND PUSH4 0x313CE567 PUSH1 0x40 MLOAD DUP2 PUSH4 0xFFFFFFFF AND PUSH1 0xE0 SHL DUP2 MSTORE PUSH1 0x4 ADD PUSH1 0x20 PUSH1 0x40 MLOAD DUP1 DUP4 SUB DUP2 DUP7 GAS STATICCALL ISZERO DUP1 ISZERO PUSH2 0xB11 JUMPI RETURNDATASIZE PUSH1 0x0 DUP1 RETURNDATACOPY RETURNDATASIZE PUSH1 0x0 REVERT JUMPDEST POP POP POP POP PUSH1 0x40 MLOAD RETURNDATASIZE PUSH1 0x1F NOT PUSH1 0x1F DUP3 ADD AND DUP3 ADD DUP1 PUSH1 0x40 MSTORE POP DUP2 ADD SWAP1 PUSH2 0xB35 SWAP2 SWAP1 PUSH2 0xFC0 JUMP JUMPDEST SWAP2 SWAP7 PUSH1 0xFF SWAP1 SWAP3 AND SWAP6 POP SWAP1 SWAP4 POP POP POP POP JUMP JUMPDEST PUSH1 0x0 SLOAD PUSH1 0x1 PUSH1 0x1 PUSH1 0xA0 SHL SUB AND CALLER EQ PUSH2 0xB70 JUMPI PUSH1 0x40 MLOAD PUSH3 0x461BCD PUSH1 0xE5 SHL DUP2 MSTORE PUSH1 0x4 ADD PUSH2 0x310 SWAP1 PUSH2 0xD5A JUMP JUMPDEST PUSH1 0x1 PUSH1 0x1 PUSH1 0xA0 SHL SUB DUP2 AND PUSH2 0xBD5 JUMPI PUSH1 0x40 MLOAD PUSH3 0x461BCD PUSH1 0xE5 SHL DUP2 MSTORE PUSH1 0x20 PUSH1 0x4 DUP3 ADD MSTORE PUSH1 0x26 PUSH1 0x24 DUP3 ADD MSTORE PUSH32 0x4F776E61626C653A206E6577206F776E657220697320746865207A65726F2061 PUSH1 0x44 DUP3 ADD MSTORE PUSH6 0x646472657373 PUSH1 0xD0 SHL PUSH1 0x64 DUP3 ADD MSTORE PUSH1 0x84 ADD PUSH2 0x310 JUMP JUMPDEST PUSH2 0x514 DUP2 PUSH2 0xBEE JUMP JUMPDEST PUSH1 0x3 DUP2 DUP2 SLOAD DUP2 LT PUSH2 0x400 JUMPI PUSH1 0x0 DUP1 REVERT JUMPDEST PUSH1 0x0 DUP1 SLOAD PUSH1 0x1 PUSH1 0x1 PUSH1 0xA0 SHL SUB DUP4 DUP2 AND PUSH1 0x1 PUSH1 0x1 PUSH1 0xA0 SHL SUB NOT DUP4 AND DUP2 OR DUP5 SSTORE PUSH1 0x40 MLOAD SWAP2 SWAP1 SWAP3 AND SWAP3 DUP4 SWAP2 PUSH32 0x8BE0079C531659141344CD1FD0A4F28419497F9722A3DAAFE3B4186F6B6457E0 SWAP2 SWAP1 LOG3 POP POP JUMP JUMPDEST PUSH1 0x1 PUSH1 0x1 PUSH1 0xA0 SHL SUB DUP1 DUP3 AND PUSH1 0x0 SWAP1 DUP2 MSTORE PUSH1 0x2 PUSH1 0x20 SWAP1 DUP2 MSTORE PUSH1 0x40 DUP1 DUP4 KECCAK256 SWAP4 DUP7 AND DUP4 MSTORE SWAP3 SWAP1 MSTORE SWAP1 DUP2 KECCAK256 SLOAD SWAP1 SUB PUSH2 0x72F JUMPI PUSH1 0x1 PUSH1 0x1 PUSH1 0xA0 SHL SUB DUP3 AND PUSH1 0x0 SWAP1 DUP2 MSTORE PUSH1 0x4 PUSH1 0x20 MSTORE PUSH1 0x40 SWAP1 KECCAK256 SLOAD PUSH2 0xC90 SWAP1 PUSH1 0x1 PUSH2 0xF27 JUMP JUMPDEST PUSH1 0x1 PUSH1 0x1 PUSH1 0xA0 SHL SUB DUP4 AND PUSH1 0x0 SWAP1 DUP2 MSTORE PUSH1 0x4 PUSH1 0x20 MSTORE PUSH1 0x40 SWAP1 KECCAK256 SSTORE POP POP JUMP JUMPDEST DUP1 CALLDATALOAD PUSH1 0x1 PUSH1 0x1 PUSH1 0xA0 SHL SUB DUP2 AND DUP2 EQ PUSH2 0xCC4 JUMPI PUSH1 0x0 DUP1 REVERT JUMPDEST SWAP2 SWAP1 POP JUMP JUMPDEST PUSH1 0x0 DUP1 PUSH1 0x40 DUP4 DUP6 SUB SLT ISZERO PUSH2 0xCDC JUMPI PUSH1 0x0 DUP1 REVERT JUMPDEST PUSH2 0xCE5 DUP4 PUSH2 0xCAD JUMP JUMPDEST SWAP2 POP PUSH2 0xCF3 PUSH1 0x20 DUP5 ADD PUSH2 0xCAD JUMP JUMPDEST SWAP1 POP SWAP3 POP SWAP3 SWAP1 POP JUMP JUMPDEST PUSH1 0x0 PUSH1 0x20 DUP3 DUP5 SUB SLT ISZERO PUSH2 0xD0E JUMPI PUSH1 0x0 DUP1 REVERT JUMPDEST PUSH2 0xD17 DUP3 PUSH2 0xCAD JUMP JUMPDEST SWAP4 SWAP3 POP POP POP JUMP JUMPDEST PUSH1 0x0 PUSH1 0x20 DUP3 DUP5 SUB SLT ISZERO PUSH2 0xD30 JUMPI PUSH1 0x0 DUP1 REVERT JUMPDEST POP CALLDATALOAD SWAP2 SWAP1 POP JUMP JUMPDEST PUSH1 0x0 DUP1 PUSH1 0x40 DUP4 DUP6 SUB SLT ISZERO PUSH2 0xD4A JUMPI PUSH1 0x0 DUP1 REVERT JUMPDEST DUP3 CALLDATALOAD SWAP2 POP PUSH2 0xCF3 PUSH1 0x20 DUP5 ADD PUSH2 0xCAD JUMP JUMPDEST PUSH1 0x20 DUP1 DUP3 MSTORE DUP2 DUP2 ADD MSTORE PUSH32 0x4F776E61626C653A2063616C6C6572206973206E6F7420746865206F776E6572 PUSH1 0x40 DUP3 ADD MSTORE PUSH1 0x60 ADD SWAP1 JUMP JUMPDEST PUSH4 0x4E487B71 PUSH1 0xE0 SHL PUSH1 0x0 MSTORE PUSH1 0x11 PUSH1 0x4 MSTORE PUSH1 0x24 PUSH1 0x0 REVERT JUMPDEST PUSH1 0x1 DUP2 DUP2 JUMPDEST DUP1 DUP6 GT ISZERO PUSH2 0xDE0 JUMPI DUP2 PUSH1 0x0 NOT DIV DUP3 GT ISZERO PUSH2 0xDC6 JUMPI PUSH2 0xDC6 PUSH2 0xD8F JUMP JUMPDEST DUP1 DUP6 AND ISZERO PUSH2 0xDD3 JUMPI SWAP2 DUP2 MUL SWAP2 JUMPDEST SWAP4 DUP5 SHR SWAP4 SWAP1 DUP1 MUL SWAP1 PUSH2 0xDAA JUMP JUMPDEST POP SWAP3 POP SWAP3 SWAP1 POP JUMP JUMPDEST PUSH1 0x0 DUP3 PUSH2 0xDF7 JUMPI POP PUSH1 0x1 PUSH2 0x3EA JUMP JUMPDEST DUP2 PUSH2 0xE04 JUMPI POP PUSH1 0x0 PUSH2 0x3EA JUMP JUMPDEST DUP2 PUSH1 0x1 DUP2 EQ PUSH2 0xE1A JUMPI PUSH1 0x2 DUP2 EQ PUSH2 0xE24 JUMPI PUSH2 0xE40 JUMP JUMPDEST PUSH1 0x1 SWAP2 POP POP PUSH2 0x3EA JUMP JUMPDEST PUSH1 0xFF DUP5 GT ISZERO PUSH2 0xE35 JUMPI PUSH2 0xE35 PUSH2 0xD8F JUMP JUMPDEST POP POP PUSH1 0x1 DUP3 SHL PUSH2 0x3EA JUMP JUMPDEST POP PUSH1 0x20 DUP4 LT PUSH2 0x133 DUP4 LT AND PUSH1 0x4E DUP5 LT PUSH1 0xB DUP5 LT AND OR ISZERO PUSH2 0xE63 JUMPI POP DUP2 DUP2 EXP PUSH2 0x3EA JUMP JUMPDEST PUSH2 0xE6D DUP4 DUP4 PUSH2 0xDA5 JUMP JUMPDEST DUP1 PUSH1 0x0 NOT DIV DUP3 GT ISZERO PUSH2 0xE81 JUMPI PUSH2 0xE81 PUSH2 0xD8F JUMP JUMPDEST MUL SWAP4 SWAP3 POP POP POP JUMP JUMPDEST PUSH1 0x0 PUSH2 0xD17 DUP4 DUP4 PUSH2 0xDE8 JUMP JUMPDEST PUSH1 0x0 DUP3 PUSH2 0xEB2 JUMPI PUSH4 0x4E487B71 PUSH1 0xE0 SHL PUSH1 0x0 MSTORE PUSH1 0x12 PUSH1 0x4 MSTORE PUSH1 0x24 PUSH1 0x0 REVERT JUMPDEST POP DIV SWAP1 JUMP JUMPDEST PUSH1 0x0 DUP2 PUSH1 0x0 NOT DIV DUP4 GT DUP3 ISZERO ISZERO AND ISZERO PUSH2 0xED1 JUMPI PUSH2 0xED1 PUSH2 0xD8F JUMP JUMPDEST POP MUL SWAP1 JUMP JUMPDEST PUSH4 0x4E487B71 PUSH1 0xE0 SHL PUSH1 0x0 MSTORE PUSH1 0x32 PUSH1 0x4 MSTORE PUSH1 0x24 PUSH1 0x0 REVERT JUMPDEST PUSH1 0x0 PUSH1 0x20 DUP3 DUP5 SUB SLT ISZERO PUSH2 0xEFE JUMPI PUSH1 0x0 DUP1 REVERT JUMPDEST DUP2 MLOAD DUP1 ISZERO ISZERO DUP2 EQ PUSH2 0xD17 JUMPI PUSH1 0x0 DUP1 REVERT JUMPDEST PUSH1 0x0 PUSH1 0x1 DUP3 ADD PUSH2 0xF20 JUMPI PUSH2 0xF20 PUSH2 0xD8F JUMP JUMPDEST POP PUSH1 0x1 ADD SWAP1 JUMP JUMPDEST PUSH1 0x0 DUP3 NOT DUP3 GT ISZERO PUSH2 0xF3A JUMPI PUSH2 0xF3A PUSH2 0xD8F JUMP JUMPDEST POP ADD SWAP1 JUMP JUMPDEST PUSH1 0x0 DUP3 DUP3 LT ISZERO PUSH2 0xF51 JUMPI PUSH2 0xF51 PUSH2 0xD8F JUMP JUMPDEST POP SUB SWAP1 JUMP JUMPDEST DUP1 MLOAD PUSH10 0xFFFFFFFFFFFFFFFFFFFF DUP2 AND DUP2 EQ PUSH2 0xCC4 JUMPI PUSH1 0x0 DUP1 REVERT JUMPDEST PUSH1 0x0 DUP1 PUSH1 0x0 DUP1 PUSH1 0x0 PUSH1 0xA0 DUP7 DUP9 SUB SLT ISZERO PUSH2 0xF88 JUMPI PUSH1 0x0 DUP1 REVERT JUMPDEST PUSH2 0xF91 DUP7 PUSH2 0xF56 JUMP JUMPDEST SWAP5 POP PUSH1 0x20 DUP7 ADD MLOAD SWAP4 POP PUSH1 0x40 DUP7 ADD MLOAD SWAP3 POP PUSH1 0x60 DUP7 ADD MLOAD SWAP2 POP PUSH2 0xFB4 PUSH1 0x80 DUP8 ADD PUSH2 0xF56 JUMP JUMPDEST SWAP1 POP SWAP3 SWAP6 POP SWAP3 SWAP6 SWAP1 SWAP4 POP JUMP JUMPDEST PUSH1 0x0 PUSH1 0x20 DUP3 DUP5 SUB SLT ISZERO PUSH2 0xFD2 JUMPI PUSH1 0x0 DUP1 REVERT JUMPDEST DUP2 MLOAD PUSH1 0xFF DUP2 AND DUP2 EQ PUSH2 0xD17 JUMPI PUSH1 0x0 DUP1 REVERT INVALID LOG2 PUSH5 0x6970667358 0x22 SLT KECCAK256 STATICCALL 0xE6 LOG4 GASPRICE 0x25 PUSH4 0xE53D667A 0x4E 0x23 0xC0 PUSH23 0x26FA75CEEAF4D1B959CFA7E7FE36BE8A436064736F6C63 NUMBER STOP ADDMOD 0xD STOP CALLER ",
  "sha1": "eabaa0ff7e4512caf6ee4d917c39383e6526ddc9",
  "source": "// SPDX-License-Identifier: MIT\n\npragma solidity ^0.8.0;\n\nimport \"@openzeppelin/contracts/access/Ownable.sol\";\nimport \"@openzeppelin/contracts/token/ERC20/IERC20.sol\";\nimport \"@chainlink/contracts/src/v0.8/interfaces/AggregatorV3Interface.sol\";\n\ncontract TokenFarm is Ownable {    \n\n    address[] public allowedTokens;\n    mapping (address => mapping (address => uint256)) public tokenStakerBalance;\n    address[] public stakers;\n    mapping(address => uint256) public uniqueTokensStaked;\n    IERC20 public  dappToken; \n    mapping(address => address) public tokenPriceFeedMap; \n\n    constructor (address _dappTokenAddress) {\n        dappToken = IERC20(_dappTokenAddress);\n    }\n\n    function setPriceFeedAddress(address _token, address _priceFeed) \n        public onlyOwner {\n        tokenPriceFeedMap[_token] = _priceFeed;   \n    }\n\n    function stakeToken(uint256 _amount, address _token) public {\n        require(_amount > 0, \"Number of tokens to stake should be positive\");\n        require(tokenIsAllowed(_token), \"Token is not allowed to stake\");\n        updateUniqueTokensStake(msg.sender, _token);\n        IERC20(_token).transferFrom(msg.sender,address(this),_amount);\n        tokenStakerBalance[_token][msg.sender] =\n            tokenStakerBalance[_token][msg.sender] + _amount;\n        if (uniqueTokensStaked[msg.sender] == 1) {\n            stakers.push(msg.sender);\n        }\n    }\n\n    function unStakeTokens(address _token) public { \n        uint256 balance = tokenStakerBalance[_token][msg.sender];       \n        require(tokenIsAllowed(_token), \"Token is not allowed to stake\");\n        require(balance > 0, \"Not enough tokens to unstake\");        \n        tokenStakerBalance[_token][msg.sender] = 0;\n        uniqueTokensStaked[msg.sender] = uniqueTokensStaked[msg.sender] - 1;\n        IERC20(_token).transferFrom(msg.sender,address(this),balance);\n    }\n\n    function updateUniqueTokensStake(address _user, address _token) internal {\n        if (tokenStakerBalance[_token][_user] == 0) {\n            uniqueTokensStaked[_user] = uniqueTokensStaked[_user] + 1; \n        }\n    }\n\n    function issueTokens() public onlyOwner {\n        for (uint256 stakerIndex = 0;\n            stakerIndex < stakers.length;\n            stakerIndex ++) {\n            address recepient = stakers[stakerIndex];\n            uint256 userTotalValue = getUserTotalValue(recepient);\n            dappToken.transfer(recepient,userTotalValue); \n        }\n    }    \n\n    function getUserTotalValue(address _user) public view returns(uint256) {\n        require(uniqueTokensStaked[_user] > 0, \"No tokens staked\");\n        uint256 totalValue = 0;\n        for (uint256  allowedTokensIndex = 0;\n            allowedTokensIndex < allowedTokens.length;\n            allowedTokensIndex++){\n                address _token = allowedTokens[allowedTokensIndex];\n                totalValue = totalValue +  getUserSingleTokenValue(_user,_token);\n            }\n        return totalValue;\n    }\n\n    function getUserSingleTokenValue(address _user, address _token)\n        public view returns(uint256) {\n        if (uniqueTokensStaked[_user] <= 0) {\n            return 0;\n        }\n        (uint256 tokenPrice,  uint256 decimals) = getTokenValue(_token);\n        return (tokenPrice / (10**decimals) * tokenStakerBalance[_token][_user]);\n    }\n\n    function getTokenValue(address _token) public view returns(uint256,uint256) {\n        AggregatorV3Interface priceFeed = AggregatorV3Interface(tokenPriceFeedMap[_token]);\n        (,int256 price,,,) = priceFeed.latestRoundData();\n        uint256 decimals = uint256(priceFeed.decimals());\n        return (uint256(price),decimals);\n    }\n\n    function tokenIsAllowed(address _token) public view returns(bool){\n        for(uint256 index = 0; index < allowedTokens.length; index++) {\n            if (allowedTokens[index] == _token) {\n                return true;\n            }\n        }     \n        return false;\n    }\n\n    function addAllowedTokens(address _token) public onlyOwner{\n         allowedTokens.push(_token);\n    }\n}",
  "sourcePath": "contracts/TokenFarm.sol",
  "type": "contract"
}